:020000040000FA
:04000000000058287C
:040004000034003490
:080008000C108B1C12282528A6
:100010000030831203138E008F000230831203130B
:10002000A800080083120313A80B222804217F30A4
:10003000A800831203132608213C031D22288312E3
:10004000031387160C108B10090008200221F520DD
:10005000EE20C8200C108B10090083160313063005
:100060009F008316031307309C00080083160313B8
:10007000061401178B100B168B170B178B17831297
:1000800003133930900000308E0000308F0083164B
:1000900003130C14831203130C1010140C107F3074
:1000A000A8000C1008008316031300308700080016
:1000B000532036202D208313831203139020D12048
:1000C000C2203530B000A90165200E30A5202830AF
:1000D0007C200C30A52014307C206528F500000021
:1000E0000000000000000000000000000000000010
:1000F0000000F50B6F280800F600FA306E206E2025
:100100006E206E20F60B7E280800F930F00000000B
:10011000F00B8728080088168520881285200800A3
:1001200083160313880183120313880140306E2065
:100130000230A5202830A5200130A5200E30A520B2
:100140008030A5200C30A5200800F500F50E7508BC
:100150000F39880008128B20F50E75080F398800BA
:1001600008128B200800F500F50E75080F3988007D
:1001700008168B208520F50E75080F3988000816A3
:100180008B200800C030A5204130A600C820080000
:100190000C30A5202608B3201030A5200E30A52055
:1001A00008008030A5204530B3206E30B320743075
:1001B000B3206530B3207230B3202030B3205330E9
:1001C000B3207430B3207230B3206930B3206E3066
:1001D000B3206730B3203A30B32008002608213C12
:1001E000031D08004130A600080026085B3C031DE3
:1001F00008002030A60008002608453C031D080022
:1002000004210800A60A0800830183120313831344
:10021000300800008400831326088000B00A2608F6
:10022000203C03192B291430A520A90A030103112E
:100230004130A600B3201030A5202908053C031941
:100240002B2908003530B000A901B501B601B7016E
:10025000B801B90109000830A520071764307C20D7
:100260000130A5200C30A5208030A5203508B32012
:100270003608B3203708B3203808B3203908B32034
:10028000C1018030A5201C30A52032307C20C10A5D
:100290004108103C031C4D2941290130A520C030E4
:1002A000A5201C30A5201C30A5201C30A5201C300A
:1002B000A5201C30A5201C30A5201C30A5201C30FA
:1002C000A5201C30A5201C30A5201C30A5201C30EA
:1002D000A5201C30A5201C30A5201C30A5201C30DA
:1002E000A5203508B3203608B3203708B3203808D6
:1002F000B3203908B320C10AC10AC10AC10AC10A20
:10030000C10AC10A1830A52032307C20C10341083F
:080310000319302982290800BD
:02400E00313748
:00000001FF
