:020000040000FA
:040000000000522882
:040004000034003490
:0800080027308E00FF308F004D
:100010000C108B1C162828280030831203138E0026
:100020008F00083083120313A80008008312031303
:10003000A80B2528FE20083083120313A800831282
:1000400003132608213C031D25280C108B100900E2
:10005000FC20EF20E820F620C2200C108B100900B5
:100060008316031306309F008316031307309C008A
:10007000080083160313061401178B100B168B1739
:1000800083120313100839389000080083160313F5
:1000900000308700831203131008393890000830AD
:1000A000A800080046203920302083138312031350
:1000B0008A20CB20BC203530B000A9015F200E3053
:1000C0009F20143076200C309F20143076205F283B
:1000D000F50000000000000000000000000000002B
:1000E000000000000000F50B69280800F600FA3057
:1000F0006820682068206820F60B78280800F9300E
:10010000F0000000F00B8128080088167F2088127C
:100110007F200800831603138801831203138801CC
:100120004030682002309F2028309F2001309F20DF
:100130000E309F2080309F200C309F200800F5005B
:10014000F50E75080F39880008128520F50E750820
:100150000F398800081285200800F500F50E750893
:100160000F398800081685207F20F50E75080F3995
:100170008800081685200800C0309F204130A60066
:10018000C22008000C309F202608AD2010309F2090
:100190000E309F20080080309F204530AD206E300B
:1001A000AD207430AD206530AD207230AD202030F0
:1001B000AD205330AD207430AD207230AD206930A9
:1001C000AD206E30AD206730AD203A30AD20080054
:1001D0002608213C031D08004130A600080026081F
:1001E0005B3C031D08002030A60008002608453CA3
:1001F000031D0800FE200800A60A080083018312E0
:100200000313831330080000840083132608800042
:10021000B00A4130A60014309F20A90A030103113F
:100220002908023C03191529080008309F200717E8
:100230006430762001309F200C309F2080309F203A
:10024000B503B603B703B803B9033508AD203608C4
:10025000AD203708AD203808AD203908AD20C101E8
:1002600080309F201C309F2032307620C10A410808
:10027000103C031C3C29302901309F20C0309F20B6
:100280001C309F201C309F201C309F201C309F2042
:100290001C309F201C309F201C309F201C309F2032
:1002A0001C309F201C309F201C309F201C309F2022
:1002B0001C309F201C309F201C309F201C309F2012
:1002C0003508AD203608AD203708AD203808AD2000
:1002D0003908AD2018309F2032307620C103410804
:0A02E000031930296A2930290800AB
:02400E00313748
:00000001FF
