:020000040000FA
:1000000000000228831603130030870083160313B1
:1000100006309F008316031307309C000530A000B4
:10002000C030A2004130A300D830831603138100F2
:10003000332083120313A0308B008316031388012F
:1000400083120313880112216F20A00B8B2020083C
:1000500003192B202D2980300F3903195D204B20E7
:100060000530A0006F208312031380300714462050
:10007000871446200715462087154620FF30462066
:10008000071087100711871146203328A4000000AD
:10009000A40B47280800F4142208F3077308F5009E
:1000A000F4101430A20780302207F300F41475080E
:1000B0000221F4101030A2070800F4142208F307FC
:1000C0007308F500F4101030A20780302207F30007
:1000D000F41475080221F4101430A2070800F4107B
:1000E00080300221F414453002216E300221743038
:1000F000022165300221723002212030022153306A
:1001000002217430022172300221693002216E30E6
:10011000022167300800D5208F20A20A0800CD20D8
:10012000CF20D220F410A2000221F41423080221CF
:100130009B209E2008004E3091000800F930F0000E
:100140000000861CB328F00BA028910B9E282308E2
:10015000203C0319B0284130A3000130A000080062
:100160004130A3000800CD20CF20D220F410A200FF
:100170000221F41423085A3C0319C1282030A3009B
:10018000C9282308203C0319C8284130A300C928E6
:10019000A30A230802219B209E28810108000B1D31
:1001A000CF280800861CD22808005030EC20861C7E
:1001B0000800F410A2000221F4147C300221503017
:1001C000EC20861C0800F410A2000221F414203058
:1001D00002218618D5280800A100861C0800A10B62
:1001E000ED280800F930F0000000F00BF4280800BA
:1001F000F100F220F10BF92808000815F22008118F
:10020000F2200800F500F0398800F4188814FD2069
:10021000F220F50E7508F0398800F4188814FD20D6
:10022000F22008006430F820F030F400303088000C
:10023000FD200530F820FD20F220FD200812FD20D1
:10024000283002210830022101300221063002212B
:0A025000803002210C30022108006A
:04025A000034003438
:02400E00313748
:00000001FF
