:020000040000FA
:04000000000036289E
:040004000034003490
:0800080027308E00FF308F004D
:100010000C108B1C0C280F280C108B100900871556
:100020000716AF304D204D204D2087014D204D202B
:100030004D2007168716071787170C108B1009001D
:100040008316031306309F008316031307309C00AA
:10005000080083160313061401178B100B168B1759
:100060000800831603130030870008003120292080
:100070002020A2004130A300622094203F20831260
:1000800003138701803007144D2087144D20FF3063
:100090004D20071087104D203F28F500000000007C
:1000A0000000000000000000F50B4E280800F930A9
:1000B000F0000000F00B592808008816572088121D
:1000C0005720080083160313880183120313880145
:1000D00040304D20023077202830772001307720C3
:1000E0000E307720803077200C3077200800F50024
:1000F000F50E75080F39880008125D20F50E750899
:100100000F39880008125D200800F500F50E75080B
:100110000F39880008165D205720F50E75080F3935
:10012000880008165D200800803077204530852043
:100130006E308520743085206530852072308520B2
:100140002030852053308520743085207230852002
:10015000693085206E308520673085203A308520D3
:02016000080095
:02400E00313748
:00000001FF
