:020000040000FA
:040000000000522882
:040004000034003490
:0800080027308E00FF308F004D
:100010000C108B1C162828280030831203138E0026
:100020008F00083083120313A80008008312031303
:10003000A80B2528F820083083120313A800831288
:1000400003132608213C031D25280C108B100900E2
:10005000F620E920E220F020BC200C108B100900D3
:100060008316031306309F008316031307309C008A
:10007000080083160313061401178B100B168B1739
:1000800083120313100839389000080083160313F5
:1000900000308700831203131008393890000830AD
:1000A000A800080046203920302083138312031350
:1000B0003530B000A2004130A3008420C520B62016
:1000C0006120831203138701803007146F20871487
:1000D0006F20FF306F20071087106F206128F50018
:1000E000000000000000000000000000F50B702878
:1000F0000800F930F0000000F00B7B28080088169B
:10010000792088127920080083160313880183124E
:100110000313880140306F20023099202830992045
:10012000013099200E309920803099200C30992090
:100130000800F500F50E75080F39880008127F20B9
:10014000F50E75080F39880008127F200800F500A9
:10015000F50E75080F39880008167F207920F50EF6
:1001600075080F39880008167F200800C0309920D4
:100170004130A600BC2008000C3099202608A7209A
:10018000103099200E309920080080309920453099
:10019000A7206E30A7207430A7206530A7207230CA
:1001A000A7202030A7205330A7207430A72072301A
:1001B000A7206930A7206E30A7206730A7203A30EB
:1001C000A72008002608213C031D08004130A60096
:1001D000080026085B3C031D08002030A60008002C
:1001E0002608453C031D0800F8200800A60A080060
:1001F0008301831203138313831330083530840083
:100200008413041326088000B00A4130A60014307D
:040210009920080029
:02400E00313748
:00000001FF
