:020000040000FA
:0400000000002D28A7
:040004000034003490
:0800080027308E00FF308F004D
:100010000C108B1C0C280F280C108B100900CE2004
:10002000C120BA20C82094200C108B100900831620
:10003000031306309F008316031307309C0008004B
:1000400083160313061401178B100B168B17080069
:100050008316031300308700080028202020172073
:100060003530B000A2004130A3005C209D208E20DE
:100070003920831203138701803007144720871427
:100080004720FF3047200710871047203928F50008
:10009000000000000000000000000000F50B4828F0
:1000A0000800F930F0000000F00B53280800881613
:1000B00051208812512008008316031388018312EF
:1000C000031388014030472002307120283071200E
:1000D000013071200E307120803071200C30712081
:1000E0000800F500F50E75080F3988000812572032
:1000F000F50E75080F398800081257200800F50022
:10010000F50E75080F398800081657205120F50E96
:1001100075080F398800081657200800C030712074
:100120004130A600942008000C30712026087F2062
:10013000103071200E307120080080307120453061
:100140007F206E307F2074307F2065307F207230BA
:100150007F2020307F2053307F2074307F2072300A
:100160007F2069307F206E307F2067307F203A30DB
:100170007F2008002608213C031D08004130A6000E
:10018000080026085B3C031D08002030A60008007C
:100190002608513C031D0800D0200800A60A0800CC
:1001A00083018312031383138313300884008413A1
:1001B000041326088000B00A4130A60014307120D4
:0201C000080035
:02400E00313748
:00000001FF
