:020000040000FA
:0400000000002C28A8
:040004000034003490
:0800080027308E00FF308F004D
:100010000C108B1C0C280F280C108B100900C7200B
:10002000C020B92093200C108B10090083160313F5
:1000300006309F008316031307309C0008008316C8
:100040000313061401178B100B168B170800831669
:10005000031300308700080027201F201620A2006D
:100060004130A30059209C208B203620831203139B
:10007000870180300714442087144420FF30442037
:100080000710871044203628F5000000000000000B
:10009000000000000000F50B45280800F930F000D2
:1000A0000000F00B5028080088164E2088124E20C1
:1000B000080083160313880183120313880140305C
:1000C000442002306E2028306E2001306E200E3029
:1000D0006E2080306E200C306E200800F500F50E8A
:1000E00075080F39880008125420F50E75080F396D
:1000F0008800081254200800F500F50E75080F3925
:100100008800081654204E20F50E75080F39880017
:10011000081654200800C0306E204130A600003080
:10012000A700932008000C306E2026087C20103099
:100130006E200E306E20080080306E2045307C200E
:100140006E307C2074307C2065307C2072307C20C6
:1001500020307C2053307C2074307C2072307C2016
:1001600069307C206E307C2067307C203A307C20E7
:1001700008002608213C031D08004130A6000800A5
:1001800026085B3C031D08002030A6000800A60AD4
:02019000080065
:02400E00313748
:00000001FF
