:020000040000FA
:0400000000003E2896
:040004000034003490
:0800080027308E00FF308F004D
:100010000C108B1C0C280F280C108B100900871556
:100020000716AF30662066206620662066206620B0
:10003000662087016620662066206620662066208E
:10004000662007168716071787170C108B100900F4
:100050008316031306309F008316031307309C009A
:10006000080083160313061401178B100B168B1749
:100070000800831603130030870008003920312060
:1000800028200530A000C030A2004130A30040214C
:1000900094205820A00BB120200803195020552986
:1000A00080300F390319822070200530A000942081
:1000B000831203138701803007146620871466209B
:1000C000FF3066200710871066205828F5000000D2
:1000D00000000000000000000000F50B6728080089
:1000E00008162208F3077308F50008121430A20757
:1000F00080302207F3000816750809210812103015
:10010000A207080008162208F3077308F500081272
:100110001030A20780302207F30008167508092165
:1001200008121430A20708008030FB204530092156
:100130006E3009217430092165300921723009219E
:1001400020300921533009217430092172300921EE
:10015000693009216E300921673009213A300921BF
:1001600008001821B520A20A0800F320F520F82085
:100170000812A200FB20081623080921C120C42070
:1001800008004E3091000800F930F0000000861C95
:10019000D928F00BC628910BC4282308203C03194A
:1001A000D6284130A3000130A00008004130A30050
:1001B0000800F320F520F8200812A200FB20081602
:1001C00023085A3C0319E7282030A300EF2823080E
:1001D000203C0319EE284130A300EF28A30A23088E
:1001E0000921C120C428810108000B1DF528080041
:1001F000861CF8280800F500F50E75080F398800F0
:1002000008123B21F50E75080F39880008123B21B2
:100210000800F500F50E75080F39880008163B2117
:100220003521F50E75080F39880008163B210800A6
:1002300050302F21861C08000812A200FB2008164F
:100240007C30FB2050302F21861C08000812A200B1
:10025000FB2008162030FB20861818290800A10072
:10026000861C0800A10B30290800F930F0000000BE
:10027000F00B37290800881635218812352108002F
:10028000831603138801831203138801403066200C
:100290000230FB202830FB200130FB200E30FB20F9
:0A02A0008030FB200C30FB2008002A
:02400E00313748
:00000001FF
