:020000040000FA
:100000000530A000C030A2006530A300D8308100C8
:1000100083120313A0308B0083160313880183120D
:1000200003138801E9204620A00B62202008031951
:100030001A20042980300F3903193420222005307A
:10004000A0004620F4142208F3077308F500F4100A
:100050001430A20780302207F300F4147508D92069
:10006000F4101030A2070800F4142208F3077308F4
:10007000F500F4101030A20780302207F300F414CA
:100080007508D920F4101430A2070800F41080304D
:10009000D920F4144530D9206E30D9207430D920BD
:1000A0006530D9207230D9202030D9205330D92062
:1000B0007430D9207230D9206930D9206E30D920DF
:1000C00067300800AC206620A20A0800A420A62001
:1000D000A920F410A200D920F4142308D9207220FA
:1000E000752008004E3091000800F930F000000043
:1000F000861C8A28F00B7728910B75282308203C52
:10010000031987284130A3000130A00008004130C6
:10011000A3000800A420A620A920F410A200D92042
:10012000F41423085A3C031998282030A300A0286F
:100130002308203C03199F284130A300A028A30ACC
:100140002308D92072207528810108000B1DA628DC
:100150000800861CA92808005030C320861C08000F
:10016000F410A200D920F4142430D9205030C32038
:10017000861C0800F410A200D920F4143230D920D3
:100180008618AC280800A100861C0800A10BC42812
:100190000800F930F0000000F00BCB280800F10057
:1001A000C920F10BD02808000815C9200811C92062
:1001B0000800F500F0398800F4188814D420C9200C
:1001C000F50E7508F0398800F4188814D420C92079
:1001D00008006430CF20F030F40030308800D420A4
:1001E0000530CF20D420C920D4200812D4202830B4
:1001F000D9200830D9200130D9200630D9208030CC
:08020000D9200C30D9200800C0
:04020800003400348A
:02400E00313748
:00000001FF
