:020000040000FA
:1000000000000228831603130030870083160313B1
:1000100006309F008316031307309C000530A000B4
:10002000C030A2004130A30083160313D8308100F2
:1000300083160313880183120313880115216B2093
:100040002F20A00B86202008031927202529803087
:100050000F390319592047200530A0006B20831267
:1000600003138030071442208714422007154220D2
:1000700087154220FF304220071087100711871193
:1000800042202F28F5000000F50B43280800081631
:100090002208F3077308F50008121430A207803015
:1000A0002207F30008167508DE2008121030A20798
:1000B000080008162208F3077308F500081210302C
:1000C000A20780302207F30008167508DE20081208
:1000D0001430A20708008030D0204530DE206E307A
:1000E000DE207430DE206530DE207230DE202030ED
:1000F000DE205330DE207430DE207230DE206930A6
:10010000DE206E30DE206730DE200800ED208A2001
:10011000A20A0800C820CA20CD200812A200D020C0
:1001200008162308DE209620992008004E30910002
:100130000800F930F0000000861CAE28F00B9B2868
:10014000910B99282308203C0319AB284130A300C8
:100150000130A00008004130A3000800C820CA20D8
:10016000CD200812A200D020081623085A3C0319FB
:10017000BC282030A300C4282308203C0319C3282E
:100180004130A300C428A30A2308DE209620992822
:10019000810108000B1DCA280800861CCD28080014
:1001A000F500F50E75080F39880008121021F50EBC
:1001B00075080F398800081210210800F500F50EA7
:1001C00075080F398800081610210A21F50E7508E8
:1001D0000F39880008161021080050300421861CB1
:1001E00008000812A200D02008167C30D020503021
:1001F0000421861C08000812A200D0200816203016
:10020000D0208618ED280800A100861C0800A10B4C
:1002100005290800F930F0000000F00B0C29080057
:1002200088160A2188120A210800880140304220DD
:100230000230D0202830D0200130D0200E30D02005
:0A0240008030D0200C30D0200800E0
:04024A000034003448
:02400E00313748
:00000001FF
