:020000040000FA
:1000000000000228831603130030870083160313B1
:1000100006309F008316031307309C000530A000B4
:10002000C030A2004130A30083160313D8308100F2
:1000300083160313880183120313880117216B2091
:100040002F20A00B88202008031927202729803083
:100050000F390319592047200530A0006B20831267
:1000600003138030071442208714422007154220D2
:1000700087154220FF304220071087100711871193
:1000800042202F28F5000000F50B43280800081631
:100090002208F3077308F50008121430A207803015
:1000A0002207F30008167508E02008121030A20796
:1000B000080008162208F3077308F500081210302C
:1000C000A20780302207F30008167508E020081206
:1000D0001430A20708008030D2204530E0206E3076
:1000E000E0207430E0206530E0207230E0202030E5
:1000F000E0205330E0207430E0207230E02069309E
:10010000E0206E30E0206730E0203A30E020080048
:10011000EF208C20A20A0800CA20CC20CF20081291
:10012000A200D22008162308E02098209B20080077
:100130004E3091000800F930F0000000861CB02815
:10014000F00B9D28910B9B282308203C0319AD2818
:100150004130A3000130A00008004130A300080096
:10016000CA20CC20CF200812A200D22008162308D3
:100170005A3C0319BE282030A300C6282308203C7F
:100180000319C5284130A300C628A30A2308E0208C
:1001900098209B28810108000B1DCC280800861C94
:1001A000CF280800F500F50E75080F3988000812F1
:1001B0001221F50E75080F39880008121221080067
:1001C000F500F50E75080F398800081612210C216C
:1001D000F50E75080F3988000816122108005030F6
:1001E0000621861C08000812A200D22008167C30C6
:1001F000D22050300621861C08000812A200D2200E
:1002000008162030D2208618EF280800A100861C8E
:100210000800A10B07290800F930F0000000F00BDE
:100220000E29080088160C2188120C21080088016C
:10023000403042200230D2202830D2200130D2205B
:0E0240000E30D2208030D2200C30D2200800A8
:02024E0000347A
:02025000003478
:02400E00313748
:00000001FF
