:020000040000FA
:04000000000036289E
:040004000034003490
:0800080027308E00FF308F004D
:100010000C108B1C0C280F280C108B100900871556
:100020000716AF305020502050208701502050201C
:10003000502007168716071787170C108B1009001A
:100040008316031306309F008316031307309C00AA
:10005000080083160313061401178B100B168B1759
:100060000800831603130030870008003120292080
:1000700020200530A000C030A2004130A300652040
:1000800097204220831203138701803007145020E9
:1000900087145020FF30502007108710502042282E
:1000A000F500000000000000000000000000F50B5B
:1000B00051280800F930F0000000F00B5C2808001F
:1000C00088165A2088125A200800831603138801C4
:1000D0008312031388014030502002307A202830E8
:1000E0007A2001307A200E307A2080307A200C304D
:1000F0007A200800F500F50E75080F3988000812FF
:100100006020F50E75080F3988000812602008007D
:10011000F500F50E75080F398800081660205A2082
:10012000F50E75080F398800081660200800803029
:100130007A20453088206E308820743088206530E1
:1001400088207230882020308820533088207430F6
:10015000882072308820693088206E30882067308F
:0801600088203A3088200800D5
:02400E00313748
:00000001FF
